:100000000C9434000C943E000C943E000C943E0082
:100010000C943E000C943E000C943E000C943E0068
:100020000C943E000C943E000C943E000C943E0058
:100030000C943E000C943E000C943E000C943E0048
:100040000C943E000C943E000C943E000C943E0038
:100050000C943E000C9440000C943E000C943E0026
:100060000C943E000C943E0011241FBECFEFD8E04C
:10007000DEBFCDBF0E9458000C9462000C940000BB
:100080001F920F920FB60F9211248F93EF93FF934D
:10009000809179008BB9EAE7F0E080818064808309
:1000A000FF91EF918F910F900FBE0F901F901895B9
:1000B0008FEF8AB982E280937C008FEC80937A0084
:0800C0007894FFCFF894FFCF04
:00000001FF
