:020000020000FC
:1000000025C02A2A2A20486F6C61204C61626F202B
:100010006465204D6963726F202A2A2A0D0A457390
:10002000637269626120312C20322C2033206F20D2
:1000300034207061726120636F6E74726F6C6172D4
:10004000206C6F73204C4544730A00000FEF0DBF06
:1000500008E00EBF07E610E00093C4001093C5004F
:1000600008E10093C10006E00093C2000FE007B969
:10007000E2E0F0E035D00591002351F00E9441000C
:10008000FACF1091C00015FFFCCF0093C600089571
:1000900001E01091C00017FFFBCF1091C600113393
:1000A00011F40E946300000F123311F40E946300E8
:1000B000000F133311F40E946300000F143341F753
:1000C0000E946300E5CF28B1322F3023303029F071
:1000D0000095202300950C946E00202B28B90895DC
:1000E00043EA57E563E06A95F1F75A95E1F74A95D7
:0400F000D1F70895A7
:00000001FF
