:020000020000FC
:020000001AC024
:1000340036C008E00EBF0FEF0DBF01E000936F0064
:10004400209A78940E9445000E942E000E944A0043
:1000540022272130F1F7F6CF09B10C70003029F4D2
:10006400289A40E040938100F7CF083011F443E030
:1000740007C0043011F444E003C00C3009F445E037
:1000840040938100089505B111E0012705B9089551
:1000940001EC0093850000E80093840008950F9319
:0E00A4000FB70F9321E00F910FBF0F9118952A
:00000001FF
