S0150000545020496E7465677261646F722E737265633C
S11300000C9434000C9449000C9449000C9449005D
S11300100C9449000C9449000C9449000C94490038
S11300200C9449000C9449000C9449000C94490028
S11300300C9449000C9449000C9449000C94490018
S11300400C9449000C9449000C9449000C94490008
S11300500C9449000C9449000C9449000C944900F8
S11300600C9449000C94490011241FBECFEFD8E032
S1130070DEBFCDBF11E0A0E0B1E0E8EFF9E002C0DF
S113008005900D92A033B107D9F70E947D000C941E
S1130090FA040C940000CF93DF93CDB7DEB78CE75E
S11300A090E022E4FC0120838AE790E027ECFC0145
S11300B020830000DF91CF910895CF93DF93CDB7D4
S11300C0DEB78AE790E02AE730E0F9012081206476
S11300D0FC01208300008AE790E0FC018081882FE6
S11300E090E080719927892BB1F388E790E0FC01B7
S11300F080819181DF91CF910895CF93DF93CDB724
S1130100DEB72F970FB6F894DEBF0FBECDBF0E94A7
S1130110D90080E091EE0E943D010E94F5000E940A
S113012006019A8389838A818F9389818F9380E0E2
S113013091E0892F8F9380E091E08F93CE01059613
S1130140292F2F938F930E9410020F900F900F90DE
S11301500F900F900F90CE0105960E94A3018DE1A0
S113016091E00E94A3010E944B000E945D009C83C9
S11301708B838C818F938B818F938BE291E0892F7A
S11301808F938BE291E08F93CE010B96292F2F93BF
S11301908F930E9410020F900F900F900F900F906A
S11301A00F90CE010B960E94A3018AE00E94880161
S11301B0DCCFCF93DF93CDB7DEB78AE290E020E4C3
S11301C0FC01208384E490E023E8FC01208385E49F
S11301D090E025E0FC01208387E490E020E8FC0126
S11301E020830000DF91CF910895CF93DF93CDB7A3
S11301F0DEB780E890E0FC01108281E890E025E41D
S1130200FC0120830000DF91CF910895CF93DF9309
S113021000D0CDB7DEB7000086E390E0FC0180811A
S1130220882F90E080729927892BB1F386E890E0BB
S1130230FC01808191819A83898386E390E020E2A6
S1130240FC012083000086E390E0FC018081882F7C
S113025090E080729927892BB1F386E890E0FC0145
S11302602081318189819A81A901481B590BCA01D6
S11302700F900F90DF91CF9108950F931F93CF9319
S1130280DF9300D0CDB7DEB79A83898381EC90E009
S113029028E0FC01208382EC90E026E0FC0120832E
S11302A004EC10E089819A819C0140E050E080E4F4
S11302B092E4AFE0B0E0BC01CD010E94CF01DA01CD
S11302C0C9018150F801808305EC10E089819A818D
S11302D09C0140E050E080E492E4AFE0B0E0BC0177
S11302E0CD010E94CF01DA01C9010197A109B10929
S11302F0892F9A2FAB2FBB27A7FDBA95F8018083CE
S113030000000F900F90DF91CF911F910F910895EE
S1130310CF93DF931F92CDB7DEB78983000080ECC3
S113032090E0FC018081882F90E080729927892BCE
S1130330B1F386EC90E02981FC01208300000F904A
S1130340DF91CF910895CF93DF9300D000D0CDB744
S1130350DEB79C838B831A8219820FC089819A81AC
S11303602B813C81820F931FFC0180810E948801B4
S113037089819A8101969A83898389819A812B81C3
S11303803C81820F931FFC018081882339F7000090
S11303900F900F900F900F90DF91CF910895052E3D
S11303A097FB1EF400940E94E60157FD07D00E94BB
S11303B0EE0107FC03D04EF40C94E60150954095F1
S11303C0309521953F4F4F4F5F4F089590958095FD
S11303D0709561957F4F8F4F9F4F0895A1E21A2E1C
S11303E0AA1BBB1BFD010DC0AA1FBB1FEE1FFF1FD5
S11303F0A217B307E407F50720F0A21BB30BE40B25
S1130400F50B661F771F881F991F1A9469F760956B
S11304107095809590959B01AC01BD01CF01089525
S1130420AEE0B0E0E6E1F2E00C94D1040D891E895F
S113043086E08C831A8309838FEF9FE79E838D83E5
S1130440AE01475E5F4F6F89788DCE0101960E94A1
S11304503202EF81F885E00FF11F10822E96E4E05E
S11304600C94ED04ABE0B0E0E8E3F2E00C94C304D8
S11304706C017B018A01FC0117821682838181FF52
S1130480CCC1CE0101963C01F6019381F70193FDA5
S1130490859193FF81917F01882309F4BAC1853244
S11304A039F493FD859193FF81917F01853229F47D
S11304B0B60190E00E942904E7CF912C212C312C25
S11304C0FFE1F315D8F08B3279F038F4803279F00B
S11304D08332A1F4232D20611DC08D3261F080335D
S11304E069F4232D216016C0832D8260382EE32DFC
S11304F0E4603E2E2AC0F32DF8601DC037FC2DC0E9
S113050020ED280F2A3040F08E32B9F436FC81C138
S1130510232D2064322E19C036FE06C08AE0989E30
S1130520200D1124922E11C0EAE02E9E200D1124DC
S1130530222EF32DF0623F2E08C08C3621F4832D39
S11305408068382E02C0883641F4F70193FD859106
S113055093FF81917F018111B3CF982F9F7D955493
S1130560933028F40C5F1F4F9FE399830DC08336AB
S113057031F0833771F0833509F059C021C0F80197
S1130580808189830E5F1F4F88248394912C5301AB
S113059013C02801F2E04F0E511CF801A080B18075
S11305A036FE03C0692D70E002C06FEF7FEFC50116
S11305B00E941E044C018201F32DFF773F2E16C0CA
S11305C0280122E0420E511CF801A080B18036FEC1
S11305D003C0692D70E002C06FEF7FEFC5010E9478
S11305E013044C01F32DF0683F2E820133FC1BC031
S11305F0822D90E088169906B0F4B60180E290E06E
S11306000E9429042A94F4CFF50137FC859137FE22
S113061081915F01B60190E00E94290421102A947F
S113062021E0821A91088114910471F7E8C084369C
S113063011F0893641F5F80137FE07C060817181F8
S1130640828193810C5F1F4F08C060817181072EE6
S1130650000C880B990B0E5F1F4FF32DFF763F2E76
S113066097FF09C090958095709561957F4F8F4F46
S11306709F4FF0683F2E2AE030E0A3010E946504FA
S1130680882E861845C0853731F4232D2F7EB22E4F
S11306902AE030E025C0932D997FB92E8F36C1F022
S11306A018F4883579F0B5C0803719F0883721F00F
S11306B0B0C0E92FE061BE2EB4FE0DC0FB2DF46086
S11306C0BF2E09C034FE0AC0292F2660B22E06C0F0
S11306D028E030E005C020E130E002C020E132E053
S11306E0F801B7FE07C060817181828193810C5F3C
S11306F01F4F06C06081718180E090E00E5F1F4F44
S1130700A3010E946504882E8618FB2DFF773F2ED7
S113071036FE0DC0232D2E7FA22E891458F434FEEC
S11307200BC032FC09C0832D8E7EA82E05C0B82CC8
S1130730A32C03C0B82C01C0B92CA4FE0FC0FE0129
S1130740E80DF11D8081803321F49A2D997EA92E24
S113075009C0A2FE06C0B394B39404C08A2D86785F
S113076009F0B394A3FC11C0A0FE06C0B21488F42F
S1130770280C922C9B180EC0B21460F4B60180E2CF
S113078090E00E942904B394F7CFB21418F42B1804
S113079002C0982C212CA4FE10C0B60180E390E086
S11307A00E942904A2FE17C0A1FC03C088E790E0C0
S11307B002C088E590E0B6010CC08A2D867859F015
S11307C0A1FE02C08BE201C080E2A7FC8DE2B6016B
S11307D090E00E942904891438F4B60180E390E083
S11307E00E9429049A94F7CF8A94F301E80DF11D2D
S11307F08081B60190E00E9429048110F5CF222067
S113080009F442CEB60180E290E00E9429042A94C1
S1130810F6CFF6018681978102C08FEF9FEF2B966A
S1130820E2E10C94DF04FC0105906150704001107A
S1130830D8F7809590958E0F9F1F0895FC01615005
S1130840704001900110D8F7809590958E0F9F1FEE
S113085008950F931F93CF93DF93FB01238121FD11
S113086003C08FEF9FEF2CC022FF16C04681578133
S1130870248135814217530744F4A081B1819D013D
S11308802F5F3F4F318320838C93268137812F5FE5
S11308903F4F3783268314C08B01EC01FB01008496
S11308A0F185E02D0995892BE1F6D80116968D91F5
S11308B09C911797019617969C938E931697CE0149
S11308C0DF91CF911F910F910895FA01AA27283043
S11308D051F1203181F1E8946F936E7F6E5F7F4F09
S11308E08F4F9F4FAF4FB1E03ED0B4E03CD0670F85
S11308F0781F891F9A1FA11D680F791F8A1F911DD8
S1130900A11D6A0F711D811D911DA11D20D009F427
S113091068943F912AE0269F11243019305D319369
S1130920DEF6CF010895462F4770405D4193B3E052
S11309300FD0C9F7F6CF462F4F70405D4A3318F0F9
S1130940495D31FD4052419302D0A9F7EACFB4E0AA
S1130950A6959795879577956795BA95C9F7009762
S11309606105710508959B01AC010A2E0694579503
S1130970479537952795BA95C9F7620F731F841F5A
S1130980951FA01D08952F923F924F925F926F92F0
S11309907F928F929F92AF92BF92CF92DF92EF920B
S11309A0FF920F931F93CF93DF93CDB7DEB7CA1B8C
S11309B0DB0B0FB6F894DEBF0FBECDBF09942A88B7
S11309C0398848885F846E847D848C849B84AA845F
S11309D0B984C884DF80EE80FD800C811B81AA81EC
S11309E0B981CE0FD11D0FB6F894DEBF0FBECDBFB7
S10B09F0ED010895F894FFCF16
S11309F84D65646963696F6E206D6F646F20636110
S1130A0870747572613A20253035750A0056616C28
S1130A186F726573204144433A0A002530346400F8
S9030000FC
