:020000020000FC
:020000004BC0F3
:0200480052C0A4
:10004C003CC02A2A2A20486F6C61204C61626F20C8
:10005C006465204D6963726F202A2A2A0D0A457344
:10006C00637269626120312C20322C2033206F2086
:10007C0034207061726120636F6E74726F6C617288
:10008C00206C6F73204C4544730A00000FEF0DBFBA
:10009C0008E00EBF07E610E00093C4001093C50003
:1000AC0008EB0093C10006E00093C2000FE007B913
:1000BC00EEE4F0E046D07894FFCF0F930FB70F9398
:1000CC001F930591002319F00093C60005C0009101
:1000DC00C1000F7D0093C1001F910F910FBF0F91B5
:1000EC0018950F930FB70F931F932F933F9301E026
:1000FC001091C600113311F40E949A00000F1233B4
:10010C0011F40E949A00000F133311F40E949A000C
:10011C00000F143311F40E949A003F912F911F91FC
:10012C000F910FBF0F91189528B1322F302330301B
:10013C0029F00095202300950C94A500202B28B9BC
:10014C00089543EA57E563E06A95F1F75A95E1F7AC
:06015C004A95D1F7089559
:00000001FF
