:020000020000FC
:100000000C9406000C942F000C94480008E00EBFDE
:100010000FEF0DBF0FE307B90FE00093690003E096
:100020000DBB7894459A15E00E94250058B156956D
:1000300058B91A95C9F715E00E94250058B1550F17
:1000400058B91A95C9F70C94120029E236E940E82C
:100050004A95F1F73A95E1F72A95D1F708950F936C
:100060000FB70F9308B10F9300E008B90FE0409A63
:10007000459A0E942500409845980E9425000A95BF
:10008000B1F7E09A0F9108B90F910FBF0F91189532
:100090000F930FB70F9308B10F9300E008B90E94B8
:1000A000250003950034D1F70000E19A0F9108B9BB
:0800B0000F910FBF0F9118958D
:00000001FF
